:020000040800F2
:10000000C0090020650200083B2600081B230008E9
:1000100039260008E9040008A72A000800000000AB
:100020000000000000000000000000003F26000863
:10003000E5060008000000003D260008A126000893
:100040007F0200087F0200087F0200087F0200088C
:100050007F0200087F0200087F0200087F0200087C
:100060007F0200087F0200087F0200087F0200086C
:100070007F0200087F0200087F0200087F0200085C
:100080007F0200087F0200087F0200087F0200084C
:10009000ED040008F90400087F0200087F02000850
:1000A0007F0200087F0200087F0200087F0200082C
:1000B0007F0200087F0200087F0200087F0200081C
:1000C0007F0200087F0200087F0200087F0200080C
:1000D0007F0200087F0200087F0200087F020008FC
:1000E0007F0200087F0200087F0200087F020008EC
:1000F0007F020008552700087F0200085D060008FF
:100100007F0200087F0200087F0200087F020008CB
:1001100029280008352800087F0200087F0200080F
:100120007F0200087F0200087F0200087F020008AB
:100130007F02000800000000000000007F020008AD
:1001400005050008110500087F0200087F0200086D
:100150007F0200087F0200087F0200087F0200087B
:100160007F0200087F0200087F0200087F0200086B
:100170007F0200087F0200087F02000800000000E4
:10018000000000007F0200080000000000000000E6
:100190007F02000800000000000000007F0200084D
:1001A0000000000000000000000000007F020008C6
:1001B0007F0200087F0200087F0200087F0200081B
:1001C0007F02000800F002F800F03CF80AA090E876
:1001D000000C82448344AAF10107DA4501D100F002
:1001E00031F8AFF2090EBAE80F0013F0010F18BF93
:1001F000FB1A43F001031847482A0000682A000050
:10020000103A24BF78C878C1FAD8520724BF30C842
:1002100030C144BF04680C60704700000023002414
:1002200000250026103A28BF78C1FBD8520728BF06
:1002300030C148BF0B6070471FB502F0EBFC1FBD1B
:1002400010B510BD00F001F91146FFF7F5FF02F0FF
:1002500075FC00F01FF903B4FFF7F2FF03BC00F0D8
:1002600027F900000948804709480047FEE7FEE7F4
:10027000FEE7FEE7FEE7FEE7FEE7FEE7FEE7FEE756
:1002800004480549054A064B704700004527000809
:10029000C5010008C0030020C0090020C0050020DF
:1002A000C005002053EA020C00F069802DE9F04BF4
:1002B0004FF00006002B1FBFB3FA83F503FA05F4D5
:1002C00024FA05F65E4012BF1643B2FA82F502FA2E
:1002D00005F4C5F120051EBF22FA05FC44EA0C0412
:1002E000203556EA044C4FEA144418BF641C4FF002
:1002F00000084FF00009904271EB030C39D300293C
:1003000019BFB1FA81F701FA07F6B0FA80F700FADF
:1003100007F6C7F120071EBF20FA07FC46EA0C06C5
:100320002037B6FBF4FCA7EB0507103F07F01F0BC7
:10033000CBF120060CFA0BFB2CFA06F644BFB346B1
:100340000026202FA4BF5E464FF0000B5BEA060C90
:1003500008BF4FF0010B19EB0B09ABFB027C48EB1C
:100360000608C01B06FB02CC0BFB03CC71EB0C0197
:10037000C1E70B46024641464846BDE8F08B13B53F
:100380004FF000004FF00001AFF30080BDE81C40CB
:10039000704710B5203AC0F00B80B1E81850203AF1
:1003A000A0E81850B1E81850A0E81850BFF4F5AF15
:1003B0005FEA027C24BFB1E81850A0E8185044BF9F
:1003C00018C918C0BDE810405FEA827C24BF51F80C
:1003D000043B40F8043B08BF7047D20728BF31F800
:1003E000023B48BF11F8012B28BF20F8023B48BF51
:1003F00000F8012B70474FF0000200B513469446F9
:100400009646203922BFA0E80C50A0E80C50B1F16C
:100410002001BFF4F7AF090728BFA0E80C5048BF80
:100420000CC05DF804EB890028BF40F8042B08BF1E
:10043000704748BF20F8022B11F0804F18BF00F81A
:10044000012B7047704770477047754600F02CF8D5
:10045000AE4605006946534620F00700854618B0B1
:1004600020B5FFF70DFFBDE820404FF000064FF02C
:1004700000074FF000084FF0000B21F00701AC46D9
:10048000ACE8C009ACE8C009ACE8C009ACE8C009F8
:100490008D46704710B50446AFF300802046BDE896
:1004A0001040FFF7D8BE0000004870475C030020F2
:1004B00001491820ABBEFEE726000200704700008D
:1004C000084A0749926B41F8202000EE102A044A9E
:1004D000BDEEC00A503210EE101A22F8101070470C
:1004E0008402002000000020FEE70000014800F028
:1004F00078BA00005C000020014800F072BA0000E9
:100500005C000020014800F06CBA0000840000206C
:10051000014800F066BA0000840000200C4B10B5C2
:1005200003F1380202F1080148B101280ED1002080
:10053000141824790C54401C0328F9DD04E0145CE1
:100540000C54401C0328FADD93ED100A10BD000086
:10055000000000202DE9FF413E4C4FF000082DED3A
:10056000020B0546C4F8048084F81480C4F808809F
:100570002261012B01D0022B14D00220364FE06003
:1005800007F1300618291ED2DFE801F00E153B45B1
:10059000474D4F511D49581D1D1D1D1D1D1D1D1D64
:1005A0001D1D1D5F0020E9E72B4869463030FFF72D
:1005B000F0FE0D204AE0284869463030FFF7E9FE9A
:1005C0000E2043E020600024234B2249243303F112
:1005D0000C02A1F5A87000F09AF8012000F01AFEB4
:1005E000F868641C401CE4B2F860032CECD30020D3
:1005F00041463154401CC0B20828FAD306B0BDE8C9
:10060000F0818C20B0714220F0710098386308208E
:1006100020610F201AE0032002E0042000E0052002
:1006200000EB4510CEE7142010E009200EE00A4848
:1006300069463030FFF7ADFE1C2007E006486946EA
:100640003030FFF7A6FE152000E0172040EA4510E5
:10065000B8E70000D401002000000020014800F0AD
:100660009FBC0000FC02002001681823CAB2103AA7
:10067000B2FBF3F2054B6FF30901032A9B5CC365E0
:1006800000D9091D81650846704700001E2C00082E
:1006900010B5014600208B698A6A4FF0C07453B1CF
:1006A000B3F5005F15D072B1012A0CD0022A0AD02E
:1006B000032A09D104E01AB1012A06D0022A03D183
:1006C000C96AC90100D5012010BDC96AA142FAD08A
:1006D00010BD002AF7D0012AF2D0022AF3D0032A53
:1006E000F3D010BD704772B6FEE790F82020012AC3
:1006F00007D0022A05D0416A41F4802141620120DD
:100700007047006842690A43426100207047F0B5B3
:1007100090F820500468A468012D05D0022D03D064
:10072000416A41F480215DE014F0406F01D1E500A1
:1007300055D5C4F30164022C03D9416A41F4000188
:1007400050E00125A5401D608D684FF4C0739DB138
:10075000CE6835434E6845EAC605066803EB0417C4
:10076000F5514FF4C275076805EB04150E697E510B
:10077000097D012905D009E00E88CD6845EA465576
:10078000EBE701684E5946F480764E511179D579E0
:10079000567941EA056195792D0445EA06252943F4
:1007A0004FF4C676056806EB0416A9511178D57882
:1007B00041EA0561957852782D0445EA02221143F9
:1007C0004FF4C475026805EB04155151006803EB42
:1007D0000411425842F0010242500020F0BD416A2B
:1007E00041F4001141620120F0BD000010B590F805
:1007F0002020012A07D0022A05D0416A41F4802135
:100800004162012010BD3B48D0F8002242F00102B5
:10081000C0F80022D0F8002222F47C52C0F8002256
:10082000D0F800224B6A42EA0322C0F800220A7D77
:1008300002F01F0301229A40D0F81C329343C0F803
:100840001C32CB69B3B9D0F80C329343C0F80C32E8
:100850008C894B6864F31F434C6900EBC404C4F8F3
:1008600040320C890B6864F31F434C6900EBC404ED
:10087000C4F84432CB69012B16D1D0F80C321343A3
:10088000C0F80C320C884B6864F31F434C6900EBD2
:10089000C404C4F840320C89CB6864F31F434C692C
:1008A00000EBC404C4F844328B69002BD0F8043246
:1008B0000ED01343C0F804320B69002BD0F8143269
:1008C00008D01343C0F81432096A012904D008E0A3
:1008D0009343EFE79343F5E7D0F81C121143C0F8B8
:1008E0001C12D0F8001221F00101C0F80012002003
:1008F00010BD000000640040704730B590F8204003
:10090000012C05D0022C03D0416A41F480215DE026
:100910000468002955D02469A40754D04FF4D87432
:10092000056804EB01142D5915F004059560056860
:100930002D594ED0ED08556005682C5904F002047D
:10094000D4604FF4DA74056804EB01142D5905F0F6
:100950000F05156105682D59C5F3072595610568D3
:100960002C59240C54614FF4DC72046802EB011220
:10097000A4581C700468A458240A5C700468A45825
:10098000240C9C700468A258120EDA704FF4DE72C8
:10099000046802EB0112A4581C710468A458240ACC
:1009A0005C710468A458240C9C710468A258120E4F
:1009B000DA71006881B1016941F020010161002014
:1009C00030BDE468A8E7416A41F4001141620120AA
:1009D00030BD6D0D1560AFE7C16841F02001C16009
:1009E000EDE72DE9F05F0546006800244669D0F880
:1009F00004908768D0F80CB0D0F810A0D0F8188018
:100A0000F10748D0F90714D001218160B80703D558
:100A1000284600F064FA0CE0780702D54FF4006431
:100A200007E0380702D54FF4805402E0284600F072
:100A300055FAF80516D529684FF480708860B80516
:100A400003D5284600F04DFA0CE0780502D544F4B1
:100A5000005407E0380502D544F4804402E02846FB
:100A600000F03EFAF80316D529684FF4803088600C
:100A7000B80303D5284600F036FA0CE0780302D517
:100A800044F4004407E0380302D544F4803402E023
:100A9000284600F027FA300707D55FEACB6004D577
:100AA0002968102044F40074C86070074FF00807EC
:100AB00007D55FEA0B7004D52868C760284600F0A8
:100AC000ABF9B00706D52868C068800702D0284671
:100AD00000F0A3F9700607D55FEACA6004D529685B
:100AE000102044F480640861B00607D55FEA0A70FC
:100AF00004D528680761284600F090F9F00606D56D
:100B000028680069800702D0284600F089F9B00300
:100B100008D55FEAC96005D52968102048602846D5
:100B200000F0AEF9F00307D55FEA097004D5286834
:100B30004760284600F0D8F9300446D55FEA49708E
:100B400040D5F00504D55FEAC87001D044F0010437
:100B5000B00504D55FEA887001D544F00204700541
:100B600004D55FEA487001D544F00404300529D566
:100B700018F0700F26D008F07000402815D006DC61
:100B8000102809D020280AD0302816D10AE0502891
:100B90000ED0602811D10EE044F008040DE044F0BE
:100BA00010040AE044F0200407E044F0400404E0AC
:100BB00044F0800401E044F480742868816921F0E5
:100BC00070018161296804204860002C05D0686AA2
:100BD000204368622846FFF78FFEBDE8F09F70B59E
:100BE000040003D094F8200010B104E0012070BD8F
:100BF000204600F081F82068016841F001010160A1
:100C000000F00EFC0546052604E000F009FC401B40
:100C10000A2811D820684068C007F6D0206801680B
:100C200021F00201016000F0FBFB05460BE000F043
:100C3000F7FB401B0A2806D9606A40F40030606266
:100C400084F82060D2E7206840688007EFD4207ED7
:100C50000128206801683DD021F080010160607E9C
:100C600001282068016838D021F040010160A07E91
:100C700001282068016833D021F020010160E07E66
:100C80000128206801682ED041F010010160207F0A
:100C900001282068016829D021F008010160607FE7
:100CA00001282068016824D021F004010160D4E902
:100CB00002010843D4E90412114308436168491E44
:100CC00008432168C86100206062012084F8200088
:100CD000002070BD41F08001C0E741F04001C5E750
:100CE00041F02001CAE721F01001CFE741F00801EF
:100CF000D4E741F00401D9E7F0B587B004461421E8
:100D00006846FFF778FB3F4B3F48DFF8F4E019688F
:100D1000D4F800C03C4A02250326092710300024DD
:100D2000491CF4452CD11960012907D1016841F013
:100D300000710160006800F000700590106840F0DC
:100D400001001060106802AB00F0010005904FF444
:100D5000C050CDE9000583E8D00069462B4800F07B
:100D60006BFA00221146142000F0C8FB142000F09A
:100D7000B7FB00221146152000F0C0FB15203BE018
:100D8000DFF88CE0F44539D1D0F800C04CF0806C2D
:100D9000C0F800C0D0F800C001290CF0806CCDF87C
:100DA00014C0196007D1016841F00071016000684A
:100DB00000F000700590106840F0020010601068AC
:100DC00002AB00F0020005904FF44050CDE9000561
:100DD00083E8D00069460F4800F02EFA0022114641
:100DE000402000F08BFB402000F07AFB00221146EF
:100DF000412000F083FB412000F072FB07B0F0BD02
:100E000000640040480000203038024000000240EA
:100E100000680040000402407047704770470000BF
:100E200010B5154B154A0121FFF767FD1348124C09
:100E30000188383CC1F3471001F01F012070617038
:100E400001290FD0092916D10120FFF767FB0B49B3
:100E50002078483101EB800181ED000ABDE81040A7
:100E6000FFF72EBB054A1C32115C491C1154024984
:100E700017320979115410BD38000020EC01002010
:100E80007047000070B5044690F82000012804D097
:100E9000606A40F40020606218E0022084F82000BC
:100EA0002068016821F00101016000F0B9FA0546EF
:100EB0000EE000BF00F0B4FA401B0A2808D9606AAF
:100EC00040F400306062052084F82000012070BDED
:100ED00020684068C007EDD1606270BD7047704700
:100EE000704770477047704770472DE9F0410446DE
:100EF000876D00F095FA064694F835000025022823
:100F000006D08020606584F834500120BDE8F0816F
:100F10002068016821F0160101602068416921F014
:100F200080014161206C08B9A06C20B12068016883
:100F300021F0080101602068016821F001010160D1
:100F40000CE000F06DFA801B052807D920206065B1
:100F5000032084F8350084F83450D7E7206800680F
:100F6000C007EED194F85C103F208840B8600120A3
:100F700084F8350084F834500020C7E790F8351025
:100F8000022903D08021416501207047052180F8A6
:100F900035100068016821F00101016000207047F0
:100FA0002DE9F84304464FF00009CDF8009063485E
:100FB0004FF41651A56D0068B0FBF1F72E6894F858
:100FC0005C10082000FA01F131420FD021680A6854
:100FD00052070BD50A6822F004020A6094F85C10EC
:100FE0008840A860606D40F00100606594F85C1076
:100FF0004FF0010808FA01F0304208D02168496931
:10100000090604D5A860606D40F00200606594F8A0
:101010005C1004208840304208D0216809688907A4
:1010200004D5A860606D40F00400606594F85C1021
:1010300010208840304218D021680968090714D56B
:10104000A86020680168490304D50068000308D53A
:10105000A16C07E00168C90503D4016821F008010B
:101060000160216C09B12046884794F85C1020206B
:101070008840304231D021680968C9062DD5A86062
:1010800094F8350005282068016806D0490347D543
:10109000006800031DD4616C1CE021F016010160A2
:1010A0002068416921F080014161206C08B9A06C81
:1010B00020B12068016821F00801016094F85C10FB
:1010C0003F208840A86084F8358084F83490216DF2
:1010D0001FE0E16B09B120468847606D00282BD0E6
:1010E000606DC00714D0052084F8350020680168C1
:1010F00021F0010101600098401C0090B84203D823
:1011000020680068C007F6D184F8358084F83490F0
:10111000E16C002910D001B02046BDE8F04308473B
:101120000168C905D5D4016821F01001016084F877
:10113000358084F83490CCE7BDE8F883580000206F
:101140002DE9F041044600F06BF906465CB102203F
:1011500084F83500002584F834502068016821F0B7
:10116000010101600DE00120BDE8F08100F058F9B7
:10117000801B052805D920206065032084F83500F0
:10118000F2E720680068C007F0D1226811682048A3
:101190000140D4E901031843D4E90336334318432B
:1011A00063691843A3691843E3691843236A184322
:1011B0000843616A042903D1D4E90B131943084396
:1011C000106020684069666A20F0070130460E43CF
:1011D000012704280CD1A06A0643E06A40B12046EA
:1011E000FFF756FA20B14020606584F83570BAE701
:1011F000206846612046FFF737FA94F85C203F21CB
:1012000091408160656584F835700020ACE700008E
:101210003F8010F070B5044600F002F90546601CEE
:1012200002D004480078044400F0FAF8401BA042C1
:10123000FAD370BD4C0000202DE9F84FDFF8ACA1C7
:101240000022012403254FF00F090AF1040BAAF133
:10125000040E00BF0B6804FA02F63340B3426ED1AD
:101260000F7907F00307012F01D0022F16D18768ED
:101270004FEA420805FA08FC27EA0C07D1F80CC02F
:101280000CFA08FC4CEA070CC0F808C04768B743E2
:101290000E79C6F3001696403E4346600E79F6433B
:1012A000B6070AD0C6684FEA420C05FA0CF7BE43EF
:1012B0008F6807FA0CF73743C7600E7906F003060C
:1012C000022E10D1D60800EB8608D8F82060570708
:1012D0004FEAD76C09FA0CF7BE430F6907FA0CF70F
:1012E0003743C8F8207006684FEA420C05FA0CF73D
:1012F000BE430F7907F0030707FA0CF7374307607F
:101300004E6816F4403F6BD0394E376847F480473B
:101310003760366822F0030706F480460096354EA3
:1013200007EB060CDCF8086897074FEA177809FA0C
:1013300008F7BE43304FB84202D100271FE04FE00C
:101340002E4FB84201D1012719E02D4FB84201D1EB
:10135000022714E02B4FB84201D103270FE02A4F98
:10136000B84201D104270AE0284FB84201D105272D
:1013700005E0274FB84201D1062700E0072707FA0A
:1013800008F73743CCF80878DAF800605746D1F808
:1013900004C09E435FEACC2C00D51E433E60DBF8C0
:1013A00000605F46D1F804C09E435FEA8C2C00D5F4
:1013B0001E433E60DEF800607746D1F804C09E43CD
:1013C0005FEA8C3C00D51E433E60084F083F3E68F4
:1013D000D1F804C09E435FEACC3C00D51E433E607A
:1013E000521C102AFFF436AFBDE8F88F083C0140CC
:1013F0004438024000300140000002400004024036
:1014000000080240000C024000100240001402409C
:10141000001802400AB1816170470904FBE700002F
:1014200001488068704700004C0000200248816835
:1014300002781144816070474C0000200B4810B5C1
:10144000016841F400710160016841F4806101604C
:10145000016841F480710160032000F06FF80F20F3
:1014600000F006F800F024F8002010BD003C024017
:1014700070B50D4D04464FF47A712878B1FBF0F049
:101480000A490968B1FBF0F000F004FC48B9102CDF
:1014900007D200222146501E00F030F800206C6078
:1014A00070BD012070BD00004C00002058000020DD
:1014B0000A4808B5016841F480410160006800F401
:1014C000804000900548001F016841F08051016094
:1014D000006800F08050009008BD000044380240D1
:1014E000002809DB00F01F02012191404009800023
:1014F00000F1E020C0F8001170470000F0B40E4B7E
:101500001B680C46C3F30223C3F10705042D00D961
:101510000425191D072901D2002300E0DB1E012646
:1015200006FA05F1491E214099409E40761E16405C
:101530003143F0BC01F0F2BA0CED00E0064900F0D6
:10154000070208684FF6FF03184040EA0220034AEA
:1015500010430860704700000CED00E00000FA0541
:101560002DE9F8431748016841F080510160006897
:10157000154F00F08050012600903E64FFF750FFA9
:1015800005464FF47A78114C05E000BFFFF748FF9D
:10159000401B40450DD86068C003F7D57E64FFF757
:1015A0003FFF0546464607E0FFF73AFF401BB042C3
:1015B00002D90320BDE8F88360688003F4D50020D9
:1015C000F8E700004038024000000E420070004082
:1015D0002DE9F0470E46050065D0DFF81481D8F8F4
:1015E0000000F7B200F00F00B04207D288F8007098
:1015F000D8F8000000F00F00B04254D128683D4CEC
:10160000810712D5400703D5206840F4E0502060E0
:101610002878000703D5206840F4604020602068E7
:10162000A96820F0F000084320602878C0072DD07A
:10163000304968680839012812D0022813D00328DD
:1016400011D00968890700292DDA216821F00301EA
:1016500001432160FFF7E4FE814641F2883A0EE043
:1016600009688903EFE709688901ECE7FFF7D8FE0D
:10167000A0EB0901514502D90320BDE8F08720689D
:10168000696800F00C00B0EB810FEFD1D8F80010C2
:10169000404601F00F01B14207D90770006800F021
:1016A0000F00B04201D00120E7E72878400705D5B8
:1016B0002068E96820F4E05008432060287800079B
:1016C00006D52068296920F4604040EAC100206006
:1016D00000F038F82168084AC1F30311515CC84092
:1016E0000649086006480068FFF7C2FE0020C4E70C
:1016F000003C024008380240262C00085800002018
:10170000500000200448054900680968044AC1F3F4
:101710008221515CC84070475800002008380240C0
:10172000362C00080448054900680968044AC1F3DA
:101730004231515CC84070475800002008380240D0
:10174000362C0008224810B5006810F00C02214821
:1017500015D04110042A11D01D4C241F082A0FD087
:101760000C2A0CD12268236802F03F025B0221D5CB
:101770002068C0F38810A0FB010120E0084610BDDE
:101780002268236802F03F025B0205D52068C0F39F
:101790008810A0FB010104E02168C1F38811A1FBBE
:1017A00000010023FEF77EFD2168C1F30141491CC1
:1017B00049000AE02168C1F38811A1FB0001002360
:1017C000FEF770FD2168C1F30271B0FBF1F010BDAE
:1017D000083802400024F4002DE9F84F04007DD0C1
:1017E000DFF878B32078ABF10407C007A7F1040550
:1017F00050D0DBF800105846C1F3810101290FD009
:101800000168C1F38101022902D13968490207D474
:101810000068C0F38100032809D13868400206D56A
:101820002868800336D560680028D8D032E0606828
:10183000B0F5803F10D0B0F5A02F286810D020F46C
:1018400080302860286820F4802028606068A0B17B
:10185000FFF7E6FD06460CE0286840F48030F4E728
:1018600040F480202860F7E7FFF7DAFD801B64284A
:1018700076D828688003F7D50CE0FFF7D1FD06463F
:1018800005E000BFFFF7CCFD801B6428F0D8286876
:101890008003F7D42078DFF8C89280074FF0000A61
:1018A00044D5DBF80010584611F00C0F0FD001683A
:1018B000C1F38101022902D13968490207D50068C4
:1018C000C0F3810003280AD13868400207D4286891
:1018D000800715D5E068012800D111E03AE1E06801
:1018E000B0B10120C9F80000FFF79AFD064604E0F8
:1018F000FFF796FD801B0228BAD828688007F7D525
:101900002868216920F0F80040EAC10028600DE055
:10191000C9F800A0FFF784FD064604E0FFF780FD4C
:10192000801B02281CD828688007F7D4207800077D
:1019300027D5DFF828828B48616908F16C0881B1EE
:1019400001210160FFF76CFD064604E0FFF768FD2A
:10195000801B022804D8D8F800008007F6D510E0D4
:1019600089E0C0F800A0FFF75BFD064605E000BF78
:10197000FFF756FD801B02287DD8D8F800008007AD
:10198000F6D42078400769D574484FF00008383005
:101990000068C0000BD471483830016841F08051B4
:1019A000016000684FF0010800F0805000906E4E1A
:1019B0003068C00511D4306840F480703060FFF7A3
:1019C0002FFD009006E000BFFFF72AFD0099401AA6
:1019D000022850D83068C005F6D5604EA068683639
:1019E00001280FD00528306810D020F001003060A9
:1019F000306820F004003060A068B8B1FFF710FD37
:101A000000900FE0306840F00100F4E740F004007F
:101A10003060F7E7FFF704FD0099411A41F2883082
:101A2000814264D830688007F4D50EE0FFF7F8FCF7
:101A3000009007E0FFF7F4FC0099411A41F288306A
:101A4000814254D830688007F4D4B8F1000F05D033
:101A500042483830016821F080510160A069A8B384
:101A6000DBF80010C1F38101022947D00228C9F830
:101A700060A005D000E03AE0FFF7D2FC044639E070
:101A8000FFF7CEFC064604E0FFF7CAFC801B0228E5
:101A90002DD828688001F7D4F4E907010843E168EC
:101AA000324A490802EB0141A26841EA8211084327
:101AB000217C40EA0160217D40EA0170386001200C
:101AC000C9F86000FFF7ACFC044606E044E000BF44
:101AD000FFF7A6FC001B022809D828688001F7D56B
:101AE0003AE000BFFFF79CFC001B022802D903204C
:101AF000BDE8F88F28688001F4D42DE00128F7D0E4
:101B00003868E26900F48001914223D1226A00F032
:101B10003F0191421ED147F6C071626A0140B1EBAC
:101B2000821F17D1A26A4FF0FF3300F4403103EB5C
:101B30005202B1EB024F0DD194F82C2000F07061ED
:101B4000B1EB026F06D194F8301000F0E040B0EB3A
:101B5000017F01D00120CBE70020C9E7083802400F
:101B600000004742800E4742007000400000FFFF27
:101B700070B5040009D0606A002540B12561656137
:101B8000A56294F8510040B10CE0012070BD60687E
:101B9000B0F5827FF4D0E561F2E784F8505020463A
:101BA00000F044F8022084F851002068016821F018
:101BB00040010160A088218900F4827001F4044191
:101BC0000843A18901F400610843217C01F002016E
:101BD0000843217D01F001010843218B01F40071CC
:101BE0000843217F01F03801084394F8201001F0E8
:101BF00080010843218D01F40051084321680860E9
:101C0000A069042101EA104094F8241001F01001A9
:101C10000843216848602068C16921F40061C161FE
:101C20006565012084F85100002070BD10B586B0B4
:101C3000044614216846FEF7DEFB134920688842FB
:101C400020D112480021026842F4805202600068EC
:101C500000F4805005900D481438026842F00102EB
:101C60000260006800F001000590E0200090022072
:101C7000CDE9010103200390052004906946044842
:101C8000FFF7DAFA06B010BD0030014044380240D8
:101C90000000024010B5401EB0F1807F01D301204A
:101CA00010BD4FF0E02460610F21601700F036FF97
:101CB0000020A06107202061002010BD7047704700
:101CC00010B5040003D094F83D0010B107E00120E6
:101CD00010BD002084F83C00204600F01FF80220D0
:101CE00084F83D00211D206800F03AFD012084F8B1
:101CF000460084F83E0084F83F0084F8400084F8F1
:101D0000410084F8420084F8430084F8440084F8D9
:101D1000450084F83D00002010BD000008B50068B3
:101D20000B49884212D10B48016841F4807101606F
:101D30000068002200F48070009011462D20FFF70B
:101D4000DDFBBDE808402D20FFF7CABB08BD000041
:101D50000020004040380240704770B504460068DB
:101D600001694FF00005C943890715D4C168C9430B
:101D7000890711D4E91E016101202077206880695C
:101D80008007204602D0FFF7E7FF04E000F098F854
:101D9000204600F096F8257720680169C943490775
:101DA00017D4C168C943490713D46FF00401016116
:101DB000022020772068806910F4407F204602D0FE
:101DC000FFF7CAFF04E000F07BF8204600F079F846
:101DD000257720680169C943090716D4C168C9433A
:101DE000090712D46FF008010161042020772068F0
:101DF000C0698007204602D0FFF7AEFF04E000F084
:101E00005FF8204600F05DF8257720680169C94336
:101E1000C90617D4C168C943C90613D46FF01001AD
:101E20000161082020772068C06910F4407F2046B7
:101E300002D0FFF791FF04E000F042F8204600F0E6
:101E400040F8257720680169C943C90708D1C168EE
:101E5000C943C90704D1891E0161204600F032F848
:101E600020680169C943090609D4C168C943090644
:101E700005D46FF0800101612046FFF71FFF206845
:101E80000169C943490609D4C168C943490605D453
:101E90006FF040010161204600F015F820680169EB
:101EA000C94389060BD4C168C943890607D46FF0BA
:101EB000200101612046BDE87040FFF700BF70BD02
:101EC000704770477047704770477047F8B50168B2
:101ED00004460868CA684B6910F00F0F4FF0000500
:101EE00059D003F0010602F49077374365D0C1075B
:101EF00005D0D10503D5216C41F0010121644107D2
:101F000005D5D90703D0216C41F002012164810776
:101F100005D5D90703D0216C41F0040121640107E4
:101F200007D502F02001314303D0216C41F00801B4
:101F30002164216C00293AD0800604D5900602D590
:101F4000204600F0ACFC20684069216CC0F3801092
:101F5000090700D460B3204600F07AFC206840698D
:101F6000400621D52068143050E8001F21F04001C0
:101F700040E80012002AF5D1A06BA8B16C490165B8
:101F8000A06BFEF7FBFF002811D0A06B016D01B024
:101F9000BDE8F040084783060FD593060DD52046CF
:101FA000BDE8F84000F07BBC2046FFF78EFFF8BD8F
:101FB0002046FFF78AFF2564F8BD266B2023012EFB
:101FC00079D1C60677D5D60675D5086848680090D9
:101FD0004869400640D5A16B086840680004000CC1
:101FE000EAD0A28D8242E7D9E085C869B0F5807F4A
:101FF0002DD020680C3050E8001F21F4807140E89B
:102000000012002AF5D12068143050E8001F21F09A
:10201000010140E80012002AF5D12068143050E890
:10202000001F21F0400140E80012002AF5D184F899
:102030003E30256320680C3050E8001F21F010016D
:1020400040E80012002AF5D1A06BFEF74EFFA08DEC
:10205000E18D401A81B229E0A08DE18D401A81B254
:10206000E08D0028A8D00029A6D020680C3050E8C8
:10207000002F22F4907240E80026002EF5D120684F
:10208000143050E8002F22F0010240E80026002E14
:10209000F5D184F83E30256320680C3050E8002FDD
:1020A00022F0100240E80023002BF5D12046FFF774
:1020B0000BFFF8BDFFE705062BD5150629D594F8CB
:1020C0003D002128F5D1A068B0F5805F01D12069DD
:1020D000B0B1206A411C2162216800784860E08C20
:1020E000401E0004000CE084E3D12068C16821F0A8
:1020F0008001C1602068C16841F04001C160D8E73B
:10210000206A0088C0F308004860206A801C2062B2
:10211000E5E74006CDD55006CBD5CA68204622F06B
:102120004002CA6084F83D3000F0F6F8C1E70000D4
:102130004128000870B5040004D094F83D00002543
:1021400010B106E0012070BD84F83C50204600F03C
:1021500023F8242084F83D002068C16821F4005150
:10216000C160204600F0FCFB2068016921F4904129
:1021700001612068416921F02A0141612068C1683C
:1021800041F40051C1602564202084F83D0084F8AA
:102190003E00002070BD00002DE9F04186B00646EB
:1021A00014216846FEF727F94148DFF800C133687B
:1021B00000253F49103803240227082263451FD118
:1021C0000B6843F400230B60096801F400210591BA
:1021D000016841F0010101600068CDE9004700F0AD
:1021E0000100CDE90420CDE9025469463148FFF7EA
:1021F00023F8002211463420FFF780F9342050E004
:10220000DFF8B4C063454ED10B6843F480130B6014
:10221000096801F480110591016841F00401016031
:10222000016801F004010591016841F008010160B5
:102230000068CDE9025400F0080005904FF480508A
:10224000CDE900079046694604921C48FEF7F4FF6A
:102250000420CDE90007CDE902546946CDF810808D
:102260001748FEF7E9FF184C164820604FF0006051
:1022700060604020C4E902050001C4E90405A561CD
:10228000E561256220466562FEF75AFF08B1FEF758
:102290002AFA7463002211463520A663FFF72EF94F
:1022A0003520FFF71DF906B0BDE8F081004C004075
:1022B0004038024000000240005000400008024048
:1022C000000C0240B8600240FC02002090F83E3052
:1022D000202B0ED159B152B190F83C30012B08D0CF
:1022E000012380F83C300023036300F0BFBB0120D2
:1022F000704702207047000010B5082204490548C5
:10230000FFF7E4FF024828384189491C418110BD8C
:1023100028000020900100207047FEE70E49A1F13F
:1023200028000A78AA2A10D1CA79FF2A0DD14A7842
:1023300082708A7802B9C278C270CA7842710A790A
:10234000C2714A790271897981714179002901D17B
:1023500001214171704700002800002030B5174866
:102360008BB0154901600C210024C0E901144FF421
:102370002021C0E903414FF4001101254161057698
:1023800044768476C57604774477FEF728FC08B156
:1023900072B6FEE704940E20CDE90850059401942E
:1023A00002940094694603940448CDE90645FEF77B
:1023B0001DFA0BB030BD0000006400405C0000203E
:1023C00030B517488BB0154901600C210024C0E9D5
:1023D00001144FF42021C0E903414FF400110125FD
:1023E0004161057644768476C57604774477FEF7B6
:1023F000F6FB08B172B6FEE70094019408950294CA
:1024000005A90E20CDE9034581E831000990694610
:102410000348FEF7EBF90BB030BD00000068004048
:10242000840000202DE9F04387B014216846FDF7B1
:10243000E2FF37480024016841F0040101600168AF
:1024400001F004010591016841F08001016001681B
:1024500001F080010591016841F00101016001680E
:1024600001F001010591016841F00201016001687C
:1024700001F002010591016841F008010160006866
:10248000DFF8909000F008004FF40055059000220E
:1024900029464846FEF7BEFF1F4F0022102138464E
:1024A000FEF7B8FFDFF8748040F2063600223146AE
:1024B0004046FEF7AFFF00950125CDE9015469467E
:1024C00048460394FEF7B8FE0420CDE900046946AF
:1024D00038460294FEF7B0FE10200090CDE901547A
:1024E000694638460394FEF7A7FE0096CDE90154ED
:1024F000694640460394FEF79FFEE802CDE90004DA
:10250000694648460294FEF797FE07B0BDE8F0839F
:10251000303802400008024000000240000402403F
:102520000E4810B50C4901604FF4827141600021E2
:102530008160C1604FF400720161C0E90512C161A0
:102540000162416281620A21C162FFF711FB00282A
:1025500001D072B6FEE710BD00300140AC00002093
:102560000B4810B5094901604FF4E1314160002189
:1025700081600C22C160C0E904128161C161FFF772
:10258000D9FD002801D072B6FEE710BD004C004016
:102590004C0100200B4810B5094901604FF4E131AE
:1025A0004160002181600C22C160C0E90412816198
:1025B000C161FFF7BFFD002801D072B6FEE710BD74
:1025C000005000409001002010B5194C9FED190AF1
:1025D000A078012818D084ED040A00BFD4ED050AC4
:1025E00094ED040AF4EE400AF1EE10FA0BD00C2040
:1025F00000F032F894ED040A0D2000F02DF894ED6F
:10260000040A84ED050A10BD217A20798142E5D0C3
:1026100020B1012806D0022802D106E084ED040A88
:102620002072DBE7B2EE040AF8E7BAEE040AF5E737
:102630000000002000000000FEE7FEE77047704742
:1026400008B1032801D1B1EE400A02230422B1EE01
:10265000400A0121FDF77EBF022304220021FDF77D
:1026600079BF00000C4A10B511630C4904220A4BD3
:102670000A6100228A60CA60072202EB40102433FC
:10268000086003F10C02A1F5A870FEF740F8BDE860
:1026900010401420FEF7BEBD00000020D401002031
:1026A000FEF7C4BE30B593B034216846FDF7A3FEF3
:1026B00014210DA8FDF79FFE20480025016841F078
:1026C00080510160006800F0805012901C48016841
:1026D00041F4404101600068022400F4404012903F
:1026E00001200090000401908001CDE90640042003
:1026F0000890B420CDE909040B9468460C94FFF7C8
:102700006BF808B172B6FEE7FEF72AFF08B172B6A1
:10271000FEE70DA90F2081E831004FF4A050109082
:102720004FF48050119005210DA8FEF751FF0028AD
:1027300001D072B6FEE713B030BD00004038024051
:10274000007000400248016841F470010160704768
:1027500088ED00E00148FFF700BB00000401002005
:10276000F0B50268254C264D264E274F274B4FF0DB
:10277000804CA04209D0604507D0A84205D0B042A5
:1027800003D0B84201D0984204D122F0700E4A68BA
:1027900042EA0E02A0421BD0604519D0A84217D0D1
:1027A000B04215D0B84213D0984211D0184DA8426B
:1027B0000ED0184DA8420BD0174DA84208D0174D87
:1027C000A84205D0164DA84202D0164DA84203D10A
:1027D00022F44075CA682A434D6922F080022A43D8
:1027E00002608A68C2620A688262A04201D098428E
:1027F00001D10969016301214161F0BD000001407F
:102800000004004000080040000C004000040140AB
:1028100000400140004401400048014000180040D1
:10282000001C0040002000400148FFF74FBB0000A3
:102830004C0100200148FFF749BB00009001002037
:1028400010B5806B0021C185C184FFF73EFB10BD30
:1028500001680C3151E8002F22F4907241E8002306
:10286000002BF5D10168143151E8002F22F001024C
:1028700041E80023002BF5D1016B012909D1016842
:102880000C3151E8002F22F0100241E80023002B08
:10289000F5D1202180F83E1000210163704708B572
:1028A00090F83E10222901D0022008BD82684FF422
:1028B00080539A4201D1016921B1816A9A421BD0A9
:1028C0004AB10AE00268816A5268C2F308020A80CB
:1028D000816A891C08E0026972B10268526802F0DC
:1028E0007F020A70816A491C8162C18D491E0904F8
:1028F000090CC18503D019E002685268F1E701684C
:10290000CA6822F02002CA600168CA6822F4807294
:10291000CA6001684A6922F001024A61202180F8F8
:102920003E10016B012903D0FFF7E6FC002008BD33
:102930000021016301680C3151E8002F22F01002E0
:1029400041E80023002BF5D101680A68D20602D5C0
:102950000A6849680091818DFFF7B6FAE6E7000042
:1029600070B5044600680169E26821F440511143E2
:1029700001612169A068E269084361691143084364
:102980002168CA6849F20C639A430243CA6020680E
:102990004169A26921F440711143416131492068C4
:1029A000884202D03049884202D1FEF7BBFE01E0E6
:1029B000FEF7A8FEE2690023192164253226B2F54C
:1029C000004F626828D0A0FB0101930F9200FDF731
:1029D00069FC0146B0FBF5F06FF01802504301EBC3
:1029E000800006EB0010B0FBF5F000F0F002B1FB48
:1029F000F5F002EB0012B1FBF5F06FF0180358434D
:102A000001EB800006EB0010B0FBF5F000F00F00CA
:102A100021681044886070BDA0FB010192185B41E1
:102A2000FDF740FC0146B0FBF5F00201B1FBF5F00B
:102A30006FF01803584301EB800006EBC000B0FBB9
:102A4000F5F000F0F80002EB4002B1FBF5F058435E
:102A500001EB800006EBC000B0FBF5F000F00700D2
:102A6000D6E7000000100140001401408162828519
:102A7000C28500210164222280F83E2080F83C10AB
:102A8000016921B10168CA6842F48072CA600168B4
:102A90004A6942F001024A610068C16841F02001C0
:102AA000C16000207047FEE770B51A4C9FED1A0A0E
:102AB000A07802281AD084ED070A00BFD4ED080AD6
:102AC00094ED070AF4EE400AF1EE10FA0DD001255C
:102AD00094ED070A2846FFF7B3FD6D1CEDB2042DF7
:102AE000F6D394ED070A84ED080A70BD217A2079A7
:102AF0008142E3D038B10749012891ED060A02D09E
:102B0000022802D103E084ED070A2072D6E7B1EE75
:102B1000400AF8E700000020000000000907090E45
:102B2000002804DB00F1E02080F80014704700F07A
:102B30000F0000F1E02080F8141D704708B5FEF783
:102B40007DFCFFF7AFFDFFF76DFC2E480024016808
:102B500041F4001101600068224600F4001000906A
:102B600021462F20FEF7CAFC2F20FEF7B9FCFFF705
:102B7000F5FBFFF725FCFFF7D3FCFFF7F1FCFFF7B0
:102B800009FD22482049016042F22731C0E90114C1
:102B900040F2E731C0E903148461FFF791F808B10E
:102BA00072B6FEE74FF41670FEF734FB1748803814
:102BB000FEF768F96420FEF72DFB144810218038D9
:102BC000FDF793FD0C24052208212046FFF74AFD5E
:102BD000641CE4B20E2CF6D34FF47A70FEF71AFBA5
:102BE000FFF7BEFCFFF7D6FC0848082208498C30E6
:102BF000FFF76CFBFFF792FBFFF7E6FCFFF754FFD4
:102C0000F8E70000303802400020004004010020B6
:102C1000280000204FF04070E1EE100A70470006D7
:102C2000101600061016000000000000000001024F
:102C30000304060708090000000001020304000065
:102C4000602C0008000000205C000000000200086A
:102C5000BC2C00085C000020640900001C02000875
:102C6000000001010001005A000000000000000007
:102C700000000000000000000000404000000000D4
:102C80000000000000000000000000000000000044
:102C90000000000000000000000000000000000034
:102CA0000000000000000000000000000100000023
:0C2CB00010000000000000000024F400F0
:04000005080001C529
:00000001FF
